S01700007261366D345F6261636B74726163652E7372656364
S3150000000050270020D1230000D1200000510200001B
S31500000010E1230000E1230000E1230000E1230000CA
S31500000020000000000000000000000000E1230000C6
S31500000030E123000000000000E1230000E1230000AE
S31500000040731700009B1600003F1800009718000069
S31500000050000000000000000000000000000000009A
S31500000060000000000000000000000000000000008A
S31500000070000000000000000000000000000000007A
S31500000080000000000000000000000000000000006A
S31500000090000000000000000000000000000000005A
S315000000A0000000000000000000000000000000004A
S315000000B0000000000000000000000000000000003A
S315000000C0000000000000000000000000000000002A
S315000000D0000000000000000000000000000000001A
S315000000E0000000000000000000000000000000000A
S315000000F000000000000000000000000000000000FA
S3150000010000000000000000000000000000000000E9
S3150000011000000000000000000000000000000000D9
S3150000012000000000000000000000000000000000C9
S3150000013000000000000000000000000000000000B9
S3150000014000000000000000000000000000000000A9
S315000001500000000000000000000000000000000099
S315000001600000000000000000000000000000000089
S315000001700000000000000000000000000000000079
S315000001800000000000000000000000000000000069
S315000001900000000000000000000000000000000059
S315000001A00000000000000000000000000000000049
S315000001B00000000000000000000000000000000039
S315000001C00348044B834202D0034B03B118477047E0
S315000001D0D4010020D401002000000000064B07498E
S315000001E0C91A891048BF0131491003D0044B0BB11D
S315000001F001481847704700BFD4010020D4010020F1
S315000002000000000010B5064C237843B9FFF7D8FF6D
S31500000210044B13B10448AFF300800123237010BDD3
S31500000220F0010020000000000C6D000008B5054B31
S315000002301BB105490548AFF30080BDE80840FFF74C
S31500000240CDBF00BF00000000F40100200C6D0000CF
S315000002507046694600F056FCFFF7FEFF80B584B095
S3150000026000AFF860B9607A602022F968184803F098
S315000002709DF92022B968174803F098F92022796879
S31500000280154803F093F9154A154B1A60154A144B95
S315000002901B68D31A144A1360144A154B1A60154A80
S315000002A0134B1B68D31A144A13600F4B1B68002BA1
S315000002B007D1124B184603F009F8114803F06EF8FF
S315000002C002E0104B01221A701037BD4680BD00BFF8
S315000002D00C0200203002002054020020501700209B
S315000002E078020020502700207C0200200000000039
S315000002F080020020386D000084020020345B00007C
S31500000300EC6300008802002080B500AF0548064B6C
S31500000310064A074902F0DAFF064803F03FF800BF35
S3150000032080BD00BF985B0000540200203002002010
S315000003300C020020EC63000080B586B000AFF860C8
S31500000340B9607A6020237B612E4B1B78002B25D069
S315000003502D4B1B78002B08D02C4B7968184602F0E1
S31500000360B5FF2B4803F01AF807E02A4B79681846C0
S3150000037002F0ACFF264803F011F87B68FA689A424F
S3150000038002D9FB687B6009E0FA68BB681A447B689F
S315000003909A4203D2FA68BB6813447B607B68BA68EA
S315000003A0F9681D4802F092FF194802F0F7FF1B4B4F
S315000003B0184602F08BFF164802F0F0FF0FE07B684C
S315000003C01B681A467968164802F080FF104802F04A
S315000003D0E5FF7B6804337B607B69013B7B61FA68E0
S315000003E0BB681A447B689A4202D97B69002BE6D126
S315000003F00C4802F06BFF064802F0D0FF00BF18372A
S31500000400BD4680BDAD030020F5030020745C0000EE
S31500000410EC6300009C5C0000F0630000245C0000BC
S31500000420286400004464000080B485B000AF7860A2
S315000004307B681B88FB817B6802331B88BB81BB8979
S3150000044003F47843B3F5784F07D1FB8903F4784377
S31500000450B3F5704F01D1012308E0BB8903F47F4354
S31500000460B3F58E4F01D1012300E00023184614375F
S31500000470BD465DF8047B704780B58AB000AFF86072
S31500000480B9607A604C4B1B68FB6100237B624B4B67
S315000004901B68BB61002387F82330494B1B78002B70
S315000004A032D0484B1B7883F00103DBB2002B2BD0F4
S315000004B07B6A5A1C7A629B00FA681344424A926924
S315000004C01A60414B5B69013B7B61404B1B687A6953
S315000004D09A4219D33D4B1A683D4B1B6813447A69FF
S315000004E09A4211D87B6A1F2B0ED87A6ABB689A4249
S315000004F00AD27B6A5A1C7A629B00FA6813447A69AC
S315000005001A60012387F823302E4B1B78002B48D026
S31500000510FB697B6045E07B681B68043B7B617B690C
S3150000052003F00103002B36D07B681B68013B7B611F
S31500000530264B1B6804337A699A422FD3234B1A68D9
S31500000540234B1B6813447A699A4227D87B6A1F2B70
S3150000055024D87B69043B1846FFF766FF0346002B49
S315000005601CD07A6ABB689A4218D27B6A022B09D1E0
S3150000057097F82330002B05D0FB6804331B687A6993
S315000005809A420AD07B6A5A1C7A629B00FA68134424
S315000005907A691A6002E000BF00E000BF7B6804339E
S315000005A07B60FA69BB6913447A689A42B3D37B6A63
S315000005B018462837BD4680BD780200207C02002000
S315000005C0AC030020AD030020B00300208002002011
S315000005D08402002080B5A6B002AF78600023C7F879
S315000005E0883007F1080380220021184602F0D6FF62
S315000005F007F108037A6820211846FFF73DFFC7F880
S3150000060088000023C7F88C301FE0D7F88C201346EB
S31500000610DB0013441F4A9818D7F88C309B009033A0
S315000006203B4453F8883C1A461B4902F0BFFED7F8F4
S315000006308C201346DB0013440833164A2021D1547C
S31500000640D7F88C300133C7F88C30D7F88C20D7F820
S3150000065088309A42D9D3D7F88830002B0FD00F486C
S31500000660D7F888201346DB0013440A4A00920C4A46
S315000006700C4902F02BFE0C4802F090FE06E00B4BF4
S31500000680184602F023FE084802F088FE00BF9037A5
S31500000690BD4680BD8C0200206C640000C45C000076
S315000006A0746400000C020020EC630000045D00008E
S315000006B080B500AFB34B93F8383003F00203DBB2DA
S315000006C0002B06D0B04B184602F000FEAF4802F0F1
S315000006D065FEAC4B93F83B3003F04003DBB2002BD6
S315000006E000F08681A74B93F82430002B6CD0A54BE5
S315000006F093F8243003F00103DBB2002B06D0A44BA1
S31500000700184602F0E3FDA14802F048FE9D4B93F81F
S31500000710243003F00203DBB2002B06D09D4B1846B3
S3150000072002F0D4FD994802F039FE964B93F8243036
S3150000073003F00803DBB2002B06D0974B184602F0F5
S31500000740C5FD924802F02AFE8E4B93F8243003F042
S315000007501003DBB2002B06D0904B184602F0B6FD14
S315000007608A4802F01BFE874B93F8243003F02003DF
S31500000770DBB2002B06D08A4B184602F0A7FD834851
S3150000078002F00CFE7F4B93F8243023F07F03DBB29C
S31500000790002B19D07B4B93F8243003F00103DBB216
S315000007A0002B07D1774B93F8243003F00203DBB21A
S315000007B0002B09D07B4A734B9B6A1946104602F000
S315000007C085FD724802F0EAFD6E4B93F82C30002B43
S315000007D073D06C4B93F82C3003F00103DBB2002B83
S315000007E006D0714B184602F071FD684802F0D6FD3E
S315000007F0644B93F82C3003F00203DBB2002B06D0D7
S315000008006A4B184602F062FD604802F0C7FD5D4B78
S3150000081093F82C3003F00403DBB2002B06D0644BB4
S31500000820184602F053FD594802F0B8FD554B93F8AF
S315000008302C3003F00803DBB2002B06D05D4B1846C4
S3150000084002F044FD514802F0A9FD4E4B93F82C30BE
S3150000085003F01003DBB2002B06D0574B184602F00C
S3150000086035FD4A4802F09AFD464B93F82C3003F0CA
S315000008702003DBB2002B06D0504B184602F026FDB3
S31500000880424802F08BFD3F4B93F82C3023F07F0358
S31500000890DBB2002B11D03B4B93F82C3003F0020354
S315000008A0DBB2002B09D0464A364B1B6B1946104665
S315000008B002F00CFD354802F071FD324B9B8E002B89
S315000008C000F096802F4B93F8343003F00103DBB22F
S315000008D0002B06D03B4B184602F0F8FC2B4802F0E2
S315000008E05DFD284B93F8343003F00203DBB2002B96
S315000008F006D0354B184602F0E9FC244802F04EFDBE
S31500000900204B93F8343003F00403DBB2002B06D0FF
S315000009102E4B184602F0DAFC1C4802F03FFD194B3C
S3150000092093F8343003F00803DBB2002B06D0284BD3
S31500000930184602F0CBFC154802F030FD114B93F837
S31500000940343003F01003DBB2002B06D0214B1846DF
S3150000095002F0BCFC0D4802F021FD0A4B93F835303D
S3150000096003F00103DBB2002B06D01B4B184602F046
S31500000970ADFC064802F012FD024B93F8353003F049
S3150000098002032BE0B0030020AC5D0000EC63000026
S31500000990D85D00001C5E0000585E0000905E0000FE
S315000009A0C45E00008C630000105F0000445F00001E
S315000009B07C5F0000B45F0000DC5F000004600000A4
S315000009C0C4630000446000008C600000D860000032
S315000009D03861000080610000DC610000DBB2002BA2
S315000009E006D0304B184602F071FC2F4802F0D6FCB8
S315000009F02E4B93F83B3023F07F03DBB2002B4ED017
S31500000A002A4BDB6B002B4AD0284B93F83C3003F083
S31500000A100103DBB2002B06D0254B184602F056FC2C
S31500000A20214802F0BBFC214B93F83C3003F0020353
S31500000A30DBB2002B06D01F4B184602F047FC1A48C3
S31500000A4002F0ACFC194B93F83C3003F00403DBB224
S31500000A50002B06D0184B184602F038FC124802F05C
S31500000A609DFC124B93F83C3003F00803DBB2002BDD
S31500000A7006D0124B184602F029FC0B4802F08EFCF9
S31500000A800A4B93F83C3003F01003DBB2002B06D080
S31500000A900B4B184602F01AFC034802F07FFC00BF1D
S31500000AA080BD00BF30620000EC630000B003002090
S31500000AB09C620000CC620000006300002C63000012
S31500000AC05C63000080B483B000AF786039607B68F7
S31500000AD003F01003002B0CBF01230023DAB2084BEE
S31500000AE01A70074B1B78002B02D03B68483300E096
S31500000AF03B6818460C37BD465DF8047B704700BF5F
S31500000B00F4030020F0B599B006AFF860B960BB6891
S31500000B107B647B6C3B640023FB63854B07F1140409
S31500000B201D460FCD0FC495E80F0084E80F00814BDA
S31500000B301B68BB63804B1B687B63804B1B7883F011
S31500000B400103DBB2002B09D07D4A7E497E4802F0C4
S31500000B50BDFB7E4802F022FC00BFFDE77C4B1B7804
S31500000B60002B09D0764A7B49774802F0AFFB7748DD
S31500000B7002F014FC00BFFDE7754B01221A707348A2
S31500000B8002F00CFCFFF7C0FB734B184602F09EFB0D
S31500000B906E4802F003FC7B6C20337B64796CF8684A
S31500000BA0FFF790FF78647A6CBB6B9A4205D3BA6BF9
S31500000BB07B6B13447A6C9A4213D9BA6B7B6B1344E2
S31500000BC0BA6B796C654802F081FB604802F0E6FB7F
S31500000BD0634B01221A70634B1B78002B01D0FB6B11
S31500000BE07B647B6C1A46796BB86BFFF7A5FB5E4B93
S31500000BF0184602F06BFB554802F0D0FB3B6C1B68B5
S31500000C005A4A13603B6C04331B68584A53603B6C6A
S31500000C1008331B68554A93603B6C0C331B68534A78
S31500000C20D3603B6C10331B68504A13613B6C143322
S31500000C301B684E4A53613B6C18331B684B4A9361E1
S31500000C403B6C1C331B68494AD3617D69474B1E6860
S31500000C50BB697B60454B5B68FA6944498968386AB9
S31500000C60424CE468049403900291019200937B68DD
S31500000C70324629463E4802F029FB344802F08EFBF4
S31500000C807D6A3A4B1E69BB6A7B60384B5B69FA6AC0
S31500000C9036498969386B354CE469049403900291AE
S31500000CA0019200937B6832462946314802F00EFBDA
S31500000CB0264802F073FB2F4802F008FB234802F097
S31500000CC06DFB2D4B1B68294A13622C4B1B78DAB23D
S31500000CD0264B83F824202A4B1B68244A9362294B0F
S31500000CE01B78DAB2214B83F82C20274B1B681F4A4E
S31500000CF01363264B1B889AB21C4B9A86244B1B689F
S31500000D001A4A9363234B1B889BB21A46174BDA6326
S31500000D10214B1B889BB21A46144B1A64FFF7C8FC7A
S31500000D20786CFFF757FC00BF4C37BD46F0BD00BFDF
S31500000D3084650000780200207C02002088020020E2
S31500000D40A46500007C64000084640000EC6300007D
S31500000D50AC030020A4640000385D0000B06400000D
S31500000D60AD030020F50300206C5D0000B0030020F9
S31500000D70F86400002465000024ED00E028ED00E0A2
S31500000D8034ED00E029ED00E038ED00E02AED00E06A
S31500000D902CED00E030ED00E03CED00E080B489B0E1
S31500000DA000AFF860B9607A60FB687B61BB68BB61C5
S31500000DB00023FB6113E07B691B6ABA691278DA705B
S31500000DC000BF7B691B6A1B79C3F3C013DBB2002B20
S31500000DD0F7D0BB690133BB61FB690133FB61FA697B
S31500000DE07B689A42E7D300BF00BF2437BD465DF853
S31500000DF0047B704780B584B000AFF860B9607A6054
S31500000E007B681A46B9680448FFF7C8FF7B6818462E
S31500000E101037BD4680BD00BF0004002080B584B0F9
S31500000E2000AF0C4BFB60FB681B6843F01002FB68CD
S31500000E301A600A23BB6000237B60BA687B6892FB5A
S31500000E40F3F33B603968044802F040FA00BF1037FC
S31500000E50BD4680BD14ED00E0D465000080B582B0CB
S31500000E6000AF00237B607B6801337B60044802F09F
S31500000E7095FAFFF7D3FF002318460837BD4680BD15
S31500000E80DC65000080B582B000AF00237B607B6824
S31500000E9001337B60FFF7E2FF034618460837BD467D
S31500000EA080BD80B582B000AF00237B607B680133D4
S31500000EB07B60FFF7E7FF034618460837BD4680BD4F
S31500000EC080B584B002AF1C491C4800F0ADF9CF23B1
S31500000ED001931B4B00931B4B1B4A1C491C4802F0F9
S31500000EE0F5F91C4B7B60786801F07EFC02460B46E8
S31500000EF0194802F0EBF9194A19491A48FFF7AEF9F1
S31500000F00FFF7CFFF4FF47A714FF47A7001F010F8C3
S31500000F10154B1B78002B0CBF01230023DBB21A46AE
S31500000F20114B1A70104B1B781A464FF483710F48F9
S31500000F3000F084FD00BFE5E798660000000400208D
S31500000F4078660000F0650000046600001066000088
S31500000F501C660000DA0F4940546600005C6600001B
S31500000F60646600006C660000F6030020F8030020AB
S31500000F7080B582B000AF0346FB71FB79022B03D12B
S31500000F800349044800F046FD00BF0837BD4680BD52
S31500000F90F8680000F803002080B586B000AFF8605E
S31500000FA0B9607A6000237B610AE0AFF300800146F6
S31500000FB0BB685A1CBA604AB21A707B6901337B61FE
S31500000FC07A697B689A42F0DB7B6818461837BD461B
S31500000FD080BD80B483B000AF78604FF0FF33184611
S31500000FE00C37BD465DF8047B704780B483B000AF14
S31500000FF0786039603B684FF400525A600023184607
S315000010000C37BD465DF8047B704780B483B000AFF3
S315000010107860012318460C37BD465DF8047B70479F
S3150000102080B485B000AFF860B9607A6000231846D6
S315000010301437BD465DF8047B704780B500AFFFF7F7
S315000010403FFF0023184680BD80B483B000AFEFF3A6
S3150000105003837B607B683B603B88C3F308039BB2DA
S31500001060DBB2103BDBB25BB218460C37BD465DF80F
S31500001070047B704780B483B000AF03463960FB71D0
S3150000108097F9073004493A6841F8232000BF0C3726
S31500001090BD465DF8047B70477404002080B483B0BD
S315000010A000AF0346FB7197F90730044A52F8233024
S315000010B018460C37BD465DF8047B70477404002063
S315000010C080B483B000AF0346FB710B4997F9073034
S315000010D003F1C00251F8223023F4803341F8223064
S315000010E0054A97F90730C03352F8233000BF0C3752
S315000010F0BD465DF8047B70470060004080B584B053
S3150000110000AF0346FB7197F907301846FFF7D8FF83
S31500001110BFF35F8F00BF97F90730FB60FB6803F0F2
S315000011201F02074997F907305B09012000FA02F20E
S31500001130603341F8232000BF1037BD4680BD00BF95
S3150000114000E100E080B584B000AF0346B9607A6084
S31500001150FB73BB68DAB2094997F90F301201D2B2B4
S315000011600B4483F8002397F90F3079681846FFF788
S3150000117081FF00BF1037BD4680BD00BF00E100E023
S3150000118080B485B000AF0346FB7197F90730FB606A
S31500001190FB6803F01F020749FB685B09012000FAA0
S315000011A002F241F8232000BF1437BD465DF8047BE8
S315000011B0704700BF00E100E080B582B000AF034693
S315000011C0FB7197F907301846FFF798FF97F9073034
S315000011D01846FFF7D5FF00BF0837BD4680BDFFFFA5
S315000011E080B485B000AF0346FB7197F90730FB600A
S315000011F0FB6803F01F020B4997F907305B090120D2
S3150000120000FA02F2203341F82320BFF34F8F00BFCC
S31500001210BFF36F8F00BF00BF1437BD465DF8047B78
S31500001220704700BF00E100E080B58AB000AF78608B
S3150000123039607B687B623B681B781A4601239340C2
S3150000124003F00603002B0AD03B68DB695B681B785A
S3150000125003F00803DBB2002B01D00323C9E03B688F
S315000012601B7803F5800303F58C531B021A467B6A31
S315000012701A627B6A00221A707B6A3A68DA613B68F6
S315000012805A697B6A5A623B689A697B6ADA627B6A48
S3150000129000229A627A6A9378012161F301039370BE
S315000012A03B685B78002B05D17A6A9378022161F35B
S315000012B0010393703968786A00F05BF9786A00F088
S315000012C0A1F800233B62EFF31083FB60FB683B62EF
S315000012D001233B613B6983F3108800BF474B5A6883
S315000012E03B681B7819464FF00043CB40DB4343492C
S315000012F013404B60414B5B683B6A7B617B6983F3C0
S31500001300108800BF7B6A1B6A00229A707B6A1B6A80
S3150000131000221A717B6A1B6A00225A727B6A1B6A58
S3150000132000229A727B6A1B6A0022DA727B6A1B6A47
S3150000133000225A833B681B781A4640F2F933D340A1
S3150000134003F00103002B03D07B6A1B6A4022DA7488
S315000013507B6A1B6A06221A773968786A00F05CF89D
S315000013607B6A0022DA607B6A00221A617B6A0022AD
S315000013705A617B6A00229A613B68DB69FB61FB6903
S315000013801B7803F00303BB61BB6943F01003BB6129
S315000013907B6ADB6993F905301846FFF70DFF7B6A18
S315000013A0DB6993F90B301846FFF706FFBB6943F07C
S315000013B04003BB617B6ADB6993F907301846FFF788
S315000013C0FBFE7B6ADB6993F909301846FFF7F4FEEA
S315000013D0BB6943F02003BB617B6A1B6ABA69D2B260
S315000013E09A70FB695A897B6A1A817B6A044A5A6039
S315000013F0002318462837BD4680BD00BF0040084080
S315000014005549435380B483B000AF786000BF0C37B2
S31500001410BD465DF8047B704780B586B000AF786046
S3150000142039603B681B781A4640F2F933D34003F023
S315000014300103002B04D07B681B6A4FF478429A8222
S315000014403B689B781A013B68DB78DB0013437B61C2
S31500001450F2233B613B685B78032B04D17B6943F045
S3150000146040037B6107E03B685B78002B03D13B6957
S3150000147023F010033B617B681B6A7A69D2B21A704B
S315000014807B681B6A3A69D2B29A713B68DB69BB60BA
S31500001490BB681B7B082B04D17B681B6A0A225A7324
S315000014A009E0BB681B7B5B00DAB27B681B6A02F053
S315000014B00202D2B25A730023FB60BB685B78DB0181
S315000014C0DBB2FA681343FB60BB689B785B0103F0F1
S315000014D02003FA681343FB607B681B6A00221A72BA
S315000014E0BB681B78022B03D0BB681B78032B11D17A
S315000014F07B681B6AFF225A70BB681B78022B03D1DC
S31500001500FB6843F01003FB607B681B6AFA68D2B283
S31500001510DA710DE07B681B6AFA68D2B2DA717B6811
S315000015201A6ABB685B681946104600F04FF800BFA0
S3150000153000BF1837BD4680BD80B582B000AF786069
S315000015400B46FB701346BB7097F902301846FFF73F
S3150000155047FE97F902301846FFF7B2FDF97897F97A
S3150000156002307A681846FFF7EDFD00BF0837BD4622
S3150000157080BD80B582B000AF786039603B68997AEB
S315000015803B6893F90B301A467868FFF7D5FF3B683E
S3150000159019793B6893F905301A467868FFF7CCFF4E
S315000015A03B6899793B6893F907301A467868FFF7E4
S315000015B0C3FF3B68197A3B6893F909301A46786885
S315000015C0FFF7BAFF00BF0837BD4680BD80B483B0C1
S315000015D000AF786039603B689A787B685A703B68E0
S315000015E05B78C3F30103D9B27A68137861F3010318
S315000015F013703B68DA787B689A747B68DB79DBB2B8
S3150000160023F05C03DAB23B681B7803F05C03DBB2C1
S315000016101343DAB27B68DA7100BF0C37BD465DF85A
S31500001620047B704790B58BB000AFF860B960134685
S31500001630FB71FB689B6A7B627B6A002B03D107F117
S3150000164014037B6205E07B6A07F114040FCB84E880
S315000016500F00FB68DB691B781A467B6A1A607B6A97
S31500001660BA689A607B6AFA791A71FB68DA6A7B6AE9
S31500001670DA60FB685B6A786A9847FB689B6A002BAE
S3150000168007D0FB689B6A1C4607F114030FCB84E85E
S315000016900F0000BF2C37BD4690BD80B584B000AFAB
S315000016A0FFF7D2FC0346FB7397F90F301846FFF796
S315000016B007FD97F90F301846FFF7F0FCB860BB68D6
S315000016C0DB691B69002B30D1BB681B69002B2CD052
S315000016D0BB689B7803F00303DBB2022B0BD1BB681C
S315000016E0DB681B88BA68126A6FEAC3536FEAD35382
S315000016F09BB2D38105E0BB68DA68BB681B6A1278C7
S31500001700DA70BB681B69BA689278C2F30102D2B27A
S315000017109A1ABB681A61BB68DB68BA689278C2F32A
S315000017200102D2B21A44BB68DA60BB681B69002B9F
S315000017301BD1BB681B6A9B78FB71FB7943F00403E2
S31500001740FB71FB7903F07F03FB71BB681B6AFA79B7
S315000017509A70BB680022DA60BB685B6A002B04D013
S3150000176080220021B868FFF75DFF00BF1037BD4635
S3150000177080BD80B584B000AFFFF766FC0346FB73FF
S3150000178097F90F301846FFF79BFC97F90F3018466C
S31500001790FFF784FCB860BB689B7803F00303DBB2F9
S315000017A0022B07D1BB681B6A1B8A9BB2C3F30803D3
S315000017B07B6004E0BB681B6A5B79DBB27B60BB685D
S315000017C09B69002B0AD1BB685B6A002B33D07B6810
S315000017D004221946B868FFF725FF2CE0BB68586954
S315000017E0BB689B78C3F30103DBB21A463B1D19465F
S315000017F001F051FFBB685B69BA689278C2F30102D7
S31500001800D2B21A44BB685A61BB689B69BA689278BF
S31500001810C2F30102D2B29A1ABB689A61BB689B698D
S31500001820002B08D1BB685B6A002B04D00122002183
S31500001830B868FFF7F7FE00BF1037BD4680BD80B51C
S3150000184082B000AFFFF700FC0346FB7197F9073043
S315000018501846FFF723FC38603B681B6A9B78DAB2B0
S315000018603B681B6A02F07B02D2B29A703868FFF7B7
S31500001870C9FD3B685B6A002B04D002220021386850
S31500001880FFF7D0FE97F907301846FFF719FC00BF9F
S315000018900837BD4680BD80B584B000AFFFF7D4FBE6
S315000018A00346BB7297F90A301846FFF7F7FB7860D4
S315000018B00023FB607B689B7803F00303DBB2022BFB
S315000018C007D17B681B6A1B8A9BB2C3F30803FB60C4
S315000018D004E07B681B6A5B79DBB2FB607B681B6A92
S315000018E01B79DBB203F03803FB72FB7A03F01003BB
S315000018F0002B0BD07B681B6A1B7FC3F30003DBB294
S31500001900002B03D1FB7A43F04003FB727B681B6A12
S315000019101B79DAB27B681B6A22F03802D2B21A71DE
S315000019207868FFF76FFD7B685B6A002B05D0FB7A52
S315000019301A46F9687868FFF775FE97F90A3018466F
S31500001940FFF7BEFB00BF1037BD4680BD80B485B033
S3150000195000AF0023FB60EFF310837B607B68FB60C6
S315000019600123BB60BB6883F3108800BF0D4B1B6867
S31500001970002B05D10C4B0022DA700B4B4022DA709B
S31500001980084B1B680133074A1360FB683B603B68E2
S3150000199083F3108800BF00BF1437BD465DF8047B93
S315000019A0704700BF70040020000D084080B485B069
S315000019B000AF0023FB60EFF310837B607B68FB6066
S315000019C00123BB60BB6883F3108800BF0F4B1B6805
S315000019D0002B04D00D4B1B68013B0C4A13600B4BCC
S315000019E01B68002B05D10A4B0022DA70084B8022B7
S315000019F0DA70FB683B603B6883F3108800BF00BF6A
S31500001A001437BD465DF8047B704700BF70040020A4
S31500001A10000D084080B584B000AF786039607B68FF
S31500001A20FB60FB68044A1A60386800F03EF8002341
S31500001A3018461037BD4680BD54524F5080B487B00B
S31500001A4000AF78600B467B8013467B700023FB82D9
S31500001A500023BB827B8823F0FF037B827B88DBB27B
S31500001A603B823B8A012202FA03F3FB817B78002B3F
S31500001A7002D1FB89BB8201E0FB89FB827B8A1B0AC0
S31500001A809BB2DBB25B0103F1804303F50023BB602D
S31500001A90BB8A1A04FB8A1A43BB689A60002318465D
S31500001AA01C37BD465DF8047B704780B584B000AF37
S31500001AB07860786800F060F87B68BB60FFF746FFE7
S31500001AC00023FB8111E0BB685A68FB89DB001344E5
S31500001AD09888BB685A68FB89DB0013441B68194663
S31500001AE000F00EF8FB890133FB81BB681B88FA897D
S31500001AF09A42E8D3FFF75AFF00BF1037BD4680BDB4
S31500001B0080B483B000AF03463960FB803B6803F4C2
S31500001B108033002B1CD01749FB881B0A9BB21A4640
S31500001B20FB88DBB212011A4451F8223023F48033C9
S31500001B3041F822300F48FB881B0A9BB21946FB88E6
S31500001B40DBB23A6822F4803209010B4440F82320C4
S31500001B500849FB881B0A9BB21A46FB88DBB21201B6
S31500001B6013443A6841F8232000BF0C37BD465DF8A0
S31500001B70047B70470008084080B586B000AF7860E7
S31500001B803E4BFB6000237B616DE000233B6164E01C
S31500001B907B685A687B69DB0013449A8838493B693D
S31500001BA031F813309A4255D17B685A687B69DB005D
S31500001BB013441B6803F0F853BB60BB68B3F1807F26
S31500001BC003D0BB68B3F1106F21D1FB6893F8BB3427
S31500001BD0DAB201213B6901FA03F3DBB21340DBB24F
S31500001BE0002B37D1012000F075FBFB6893F8BB345E
S31500001BF0DAB201213B6901FA03F3DBB21343DAB22D
S31500001C00FB6883F8BB24012000F014FB22E0FB688C
S31500001C1093F8BB34DAB201213B6901FA03F3DBB274
S31500001C201340DBB2002B15D0012000F053FBFB68FC
S31500001C3093F8BB34DAB201213B6901FA03F3DBB254
S31500001C40DB43DBB21340DAB2FB6883F8BB24012026
S31500001C5000F0F0FA3B6901333B613B69022B97D9EF
S31500001C607B6901337B617B681B881A467B699342DB
S31500001C708BD300BF00BF1837BD4680BD00E00140D2
S31500001C80C469000080B400AF0C4B0122A3F8042104
S31500001C900A4BB3F804319BB2002BF9D1074B012252
S31500001CA0A3F80021064B01229A60054B01221A6017
S31500001CB000BFBD465DF8047B704700BF00C0014011
S31500001CC00070004080B483B000AF0D4B93F826300F
S31500001CD0DBB27B600A4B1B6A1B0E03F007033B60FB
S31500001CE0084A7B6852F823203B6822FA03F3064A27
S31500001CF0136000BF0C37BD465DF8047B704700BF1C
S31500001D0000E00140D40100200006002080B500AFAD
S31500001D100B4B032283F81C210A4B0B4A1A62094B10
S31500001D20052283F82620FFF7CDFF084BF1221A7310
S31500001D30064B01221A72054BF0221A7300BF80BDB2
S31500001D4000C0014000E001402112012000200040B7
S31500001D5080B500AF0B4B0C4A1A600A4B0B4A5A600F
S31500001D60084B4FF400429A60064B094ADA60054B6D
S31500001D704FF400421A61034B064A5A61FFF7A2FF6D
S31500001D8000BF80BDD4010020002D310100127A0071
S31500001D9000366E0100C2EB0B80B500AF1F4B4AF256
S31500001DA00352A3F8FE23FFF76DFFFFF7D1FF1B4B8E
S31500001DB0002283F81324194B092283F8A22000F08D
S31500001DC039F8164B002283F83620144B93F83C3032
S31500001DD0C3F30003DBB2012BF7D1104B42F21172B1
S31500001DE01A850E4B002283F82A200C4B93F83C30C0
S31500001DF0C3F34013DBB2012BF7D1FFF787FF074B85
S31500001E00012283F83020054B012283F85220034B30
S31500001E104FF42542A3F8FE2300BF80BD00E0014039
S31500001E2080B483B000AF786000BF0C37BD465DF864
S31500001E30047B704780B500AF184B93F88034DBB253
S31500001E40002B07D1154B93F88134C3F30103DBB2A2
S31500001E50002B1CD0114B93F88034DBB2002B0DD134
S31500001E600E4B012283F880240121C82000F060F87F
S31500001E700A4B93F88034DBB2012BF9D1074B0022D1
S31500001E8083F88124054B002283F8802404E04FF474
S31500001E907A70FFF7C5FF00BF00BF80BD00E00140BC
S31500001EA080B500AF1B4B002283F828200121C820F3
S31500001EB000F03EF8174B002283F82420154B93F8C8
S31500001EC02430DBB2002BF9D1124A92F8243043F0C9
S31500001ED0020382F824300F4B93F82430C3F34003F7
S31500001EE0DBB2002BF7D10B4B002283F82220094BE3
S31500001EF093F82230DBB2002BF9D1012000F0EAF989
S31500001F00054B002283F8BB24012000F093F900BFA3
S31500001F1080BD00BF0030084000E0014080B485B0BD
S31500001F2000AFF860B9607A603B6000BE00BFFDE7B5
S31500001F302DE9B04F90B000AFF861B9610023FB63A3
S31500001F40FB69BA6902FB03F3BB63504B1B687B63F7
S31500001F504F4A7B6BB2FBF3F33B63BB6B00223B61E7
S31500001F607A61D7E904234FF000004FF000015901D0
S31500001F7041EAD261500102460B463969B2EB0108CB
S31500001F80796963EB01094FF000024FF000034FEA55
S31500001F90890343EA98734FEA880290469946D7E93F
S31500001FA004120B4618EB03033B60134649EB03038D
S31500001FB07B604FF000024FF00003D7E900894946E5
S31500001FC0CB00414643EA51734146CA00C7E90A239A
S31500001FD0D7E90A23012B08D2BA6A3B6BB2FBF3F3AB
S31500001FE07B627B6A9B08FB6344E03B6B9B00BA6B9E
S31500001FF0B2FBF3F3BB63BB6B0022BB60FA60D7E9AD
S31500002000028942464B464FF000004FF0000159014D
S3150000201041EAD261500102460B464146541A4946EE
S3150000202063EB01054FF000024FF00003AB0043EAFB
S315000020309473A20014461D46434614EB030A4B460E
S3150000204045EB030B4FF000024FF000034FEACB03C2
S3150000205043EA5A734FEACA0292469B46C7E90AAB5D
S31500002060D7E90A23012B02D2BB6AFB6302E04FF0D9
S31500002070FF33FB63FB6B002B02D0F86B00F00AF812
S3150000208000BF4037BD46BDE8B08F00BF0006002048
S3150000209000CA9A3BA0F101000028FBD1704700BF9F
S315000020A080B582B000AF0346FB71FB79074A52F850
S315000020B02330002B06D0FB79044A52F82330FA79F4
S315000020C01046984700BF0837BD4680BD3004002043
S315000020D080B582B000AF144BB3F82031BB80124BF1
S315000020E0B3F840319AB2BB8813407B800023FB7162
S315000020F00EE07A88FB7922FA03F303F00103002B42
S3150000210003D0FB791846FFF7CBFFFB790133FB7150
S31500002110FB790F2BEDD9044A7B88A2F8303100BF3A
S315000021200837BD4680BD00BF0060004080B58AB05C
S3150000213000AF032000F0CEF8394B6FF0FF029A642F
S315000021403B1D0C22FF21184601F028FA00237B6272
S3150000215021E0344A7B6A32F81330002B18D07B6AB0
S315000021605B097B617B6A03F01F033B617B699B0014
S3150000217028333B4453F8242C01213B6901FA03F32D
S31500002180DB431A407B699B0028333B4443F8242CED
S315000021907B6A01337B627B6A5F2BDAD9224BBB6198
S315000021A000233B6218E03B6A9B00BA691A443B6A0B
S315000021B09B0028333B4453F8243C13601B493B6A7D
S315000021C09B0028333B4453F8242C3B6AA03341F848
S315000021D023203B6A01333B623B6A022BE3D903208F
S315000021E000F028F80023FB6112E00E4AFB6932F882
S315000021F01330002B09D00B4AFB6932F813300C4A16
S315000022001946FB69C03342F82310FB690133FB61B1
S31500002210FB695F2BE9D900BF00BF2837BD4680BDEB
S3150000222000800040046900007080004000E100E08A
S315000022300060004080B487B000AF0346FB71002306
S315000022407B61EFF31083FB60FB687B6101233B61DD
S315000022503B6983F3108800BFFB791A4A32F81330C2
S315000022609BB2002B09D0FB79164A32F8132092B2A2
S31500002270013A91B2134A22F81310FB79114A32F847
S3150000228013309BB2002B11D10F4BB3F8FE339AB229
S315000022900E4B13439AB2FB790D4931F81330DB43E9
S315000022A09BB2094913409BB2A1F8FE337B69BB6020
S315000022B0BB6883F3108800BF00BF1C37BD465DF8BE
S315000022C0047B7047F405002000E0014000A5FFFFF5
S315000022D0CC69000080B487B000AF0346FB710023D1
S315000022E07B61EFF31083FB60FB687B6101233B613D
S315000022F03B6983F3108800BFFB79164A32F8133026
S315000023009BB2002B0FD1144BB3F8FE339AB2FB7974
S31500002310124931F8133013439AB20F49104B134345
S315000023209BB2A1F8FE33FB790A4A32F8132092B227
S31500002330013291B2074A22F813107B69BB60BB6871
S3150000234083F3108800BF00BF1C37BD465DF8047BD1
S31500002350704700BFF405002000E00140CC69000092
S3150000236000A5FFFF80B584B000AF78607B68FB6096
S31500002370144B1B68002B02D1124B134A1A60114BE7
S315000023801B68BB60FB68033323F00303FB600D4B44
S315000023901A68FB6813440D4A934207D901F064F9A1
S315000023A003460C221A604FF0FF3306E0054B1A680D
S315000023B0FB681344034A1360BB6818461037BD46D2
S315000023C080BD00BFFC0500205007002050170020EC
S315000023D080B500AF00F00CF8FEF72FFE00BFFDE75A
S315000023E080B400AF00BE00BFBD465DF8047B7047F9
S315000023F080B584B000AF3A4B4FF47002C3F8882022
S31500002400374B384A9A600020FEF7B2FDFFF7C4FC4E
S315000024100120FEF7ADFD334B1B68A3F580533B60EF
S315000024203B6883F30A8800BF2F4A304BD31A1A46FB
S3150000243000212E4801F0B2F82D4A2E4BD31A1A4627
S315000024402D492C4801F027F92C4A2D4BD31A9B1005
S315000024507B600023FB6007E0294AFB6852F82330C3
S315000024609847FB680133FB60FA687B689A42F3DBA6
S31500002470FFF728FCFFF714FD0320FFF72BFF0023CF
S31500002480BB6009E01F4ABB6808334FF6FF7122F8AC
S315000024901310BB680133BB60BB68082BF2D903205D
S315000024A0FFF7C8FE0320FFF715FF174B00225A60FF
S315000024B0154B00229A60144B0022DA60124B002260
S315000024C01A610320FFF7B6FE0220FEF751FDFFF763
S315000024D02DFE002000F01AF800BF1037BD4680BD63
S315000024E000ED00E00000000050070020F001002091
S315000024F0D401002000000020386D0000D00100202B
S31500002500CC010020000D084000000E4080B483B0CE
S3150000251000AF786000BF0C37BD465DF8047B70479E
S3150000252081F0004102E000BF83F0004330B54FEA7E
S3150000253041044FEA430594EA050F08BF90EA020FEB
S315000025401FBF54EA000C55EA020C7FEA645C7FEA7E
S31500002550655C00F0E2804FEA5454D4EB5555B8BFA1
S315000025606D420CDD2C4480EA020281EA030382EA12
S31500002570000083EA010180EA020281EA0303362DA4
S3150000258088BF30BD11F0004F4FEA01314FF4801C77
S315000025904CEA113102D0404261EB410113F0004F89
S315000025A04FEA03334CEA133302D0524263EB430340
S315000025B094EA050F00F0A780A4F10104D5F1200EDE
S315000025C00DDB02FA0EFC22FA05F2801841F1000139
S315000025D003FA0EF2801843FA05F359410EE0A5F10D
S315000025E020050EF1200E012A03FA0EFC28BF4CF03E
S315000025F0020C43FA05F3C01851EBE37101F00045F4
S3150000260007D54FF0000EDCF1000C7EEB00006EEB00
S315000026100101B1F5801F1BD3B1F5001F0CD349088A
S315000026205FEA30004FEA3C0C04F101044FEA4452E1
S3150000263012F5800F80F09A80BCF1004F08BF5FEA68
S31500002640500C50F1000041EB045141EA050130BD48
S315000026505FEA4C0C404141EB0101013C28BFB1F55A
S31500002660801FE9D291F0000F04BF01460020B1FAA5
S3150000267081F308BF2033A3F10B03B3F120020CDA78
S315000026800C3208DD02F1140CC2F10C0201FA0CF056
S3150000269021FA02F10CE002F11402D8BFC2F1200CBB
S315000026A001FA02F120FA0CFCDCBF41EA0C01904071
S315000026B0E41AA2BF01EB0451294330BD6FEA0404BA
S315000026C01F3C1CDA0C340EDC04F11404C4F12002A5
S315000026D020FA04F001FA02F340EA030021FA04F3B7
S315000026E045EA030130BDC4F10C04C4F1200220FA0E
S315000026F002F001FA04F340EA0300294630BD21FA4C
S3150000270004F0294630BD94F0000F83F4801306BF11
S3150000271081F480110134013D4EE77FEA645C18BF05
S315000027207FEA655C29D094EA050F08BF90EA020F9C
S3150000273005D054EA000C04BF1946104630BD91EA94
S31500002740030F1EBF0021002030BD5FEA545C05D197
S315000027504000494128BF41F0004130BD14F58004D6
S315000027603CBF01F5801130BD01F0004545F0FE414A
S3150000277041F470014FF0000030BD7FEA645C1ABF7F
S31500002780194610467FEA655C1CBF0B46024650EAB6
S31500002790013406BF52EA033591EA030F41F40021E2
S315000027A030BD00BF90F0000F04BF0021704730B568
S315000027B04FF4806404F132044FF000054FF000013D
S315000027C050E700BF90F0000F04BF0021704730B5FE
S315000027D04FF4806404F1320410F0004548BF4042D3
S315000027E04FF000013EE700BF42004FEAE2014FEA28
S315000027F031014FEA02701FBF12F07F4393F07F4F03
S3150000280081F06051704732F07F4208BF704793F005
S315000028107F4F04BF41F40021704730B54FF4607418
S3150000282001F0004521F000411CE700BF50EA01021B
S3150000283008BF704730B54FF000050AE050EA0102C4
S3150000284008BF704730B511F0004502D5404261EB34
S3150000285041014FF4806404F132045FEA915C3FF475
S31500002860D8AE4FF003025FEADC0C18BF03325FEA12
S31500002870DC0C18BF033202EBDC02C2F1200300FAC3
S3150000288003FC20FA02F001FA03FE40EA0E0021FAE8
S3150000289002F11444BDE600BF2DE9FF4757EC106B6B
S315000028A0002F0C4619463B46B4BF07F100430023F0
S315000028B09146BFBF32461F462D231646DDF830A08F
S315000028C00B700D9B23F02008B8F1460F05D0B8F128
S315000028D0450F00D10134022100E0032103AB22465B
S315000028E0019302AB47EC106B0093534600F078FF60
S315000028F0B8F1470F054619D119F0010F0ED000EBBC
S315000029000409002200233046394603F06FF808B167
S31500002910CDF80C903022039B4B451ED3039B2846D3
S315000029200E9A5B1B136004B0BDE8F087B8F1460F42
S3150000293000EB0409E5D10378302B0AD100220023ED
S315000029403046394603F052F818B9C4F10104CAF802
S315000029500040DAF800309944D3E7591C03911A7005
S31500002960D9E7F7B500290270BABF49422D232B23B8
S315000029700929437028DD0DF107030A271D461A466B
S31500002980013BB1FBF7F607FB1614303402F8014C95
S315000029900C463146632CF2DC3031941E03F8011CE0
S315000029A0411C2346AB420AD30DF109039B1AAC42E4
S315000029B088BF002302330344181A03B0F0BD13F88E
S315000029C0016B01F8016FEDE7302330318370031D91
S315000029D0C170F1E72DE9F04F8DB00C4616461F4643
S315000029E0DDF85880054600F0F5FD036818460493A7
S315000029F000F05EFE002305900A93D8F8003094F8A4
S31500002A0018A00733D4F800B023F0070303F1080237
S31500002A10C8F800204FF0FF32D3E9008929F00043BF
S31500002A20CDF8188007939D4BDDE90601C4E91289AC
S31500002A3003F00EF870BB4FF0FF32984BDDE906014C
S31500002A4002F0E8FF30BB002200234046494602F070
S31500002A50D7FF10B12D2384F84330914A914BBAF138
S31500002A60470F8CBF9046984603234FF00009236119
S31500002A702BF00403236033460BAA21462846009711
S31500002A8000F0D2F9013040F08D804FF0FF300DB0EC
S31500002A90BDE8F08F42464B464046494602F0D8FF15
S31500002AA040B14B46804A002BBCBF2D2384F84330EF
S31500002AB07E4BD4E70AF0DF02636806925A1C3BD1CC
S31500002AC0062363604BF4806200232846226003934A
S31500002AD00AABCDE901A309AB49EC108B00930DF1CC
S31500002AE023036168FFF7D8FE069B80460999472BAA
S31500002AF029D1C81C02DB6368994241DDAAF1020AAA
S31500002B005FFA8AFA0139524604F150000991FFF73B
S31500002B1028FF0A9A81461318012A236102DC2268DB
S31500002B20D20701D5013323619DF82330002BA2D0B3
S31500002B302D2384F843309EE7069A472AC2D1002BFC
S31500002B40C0D10123BDE7BAF1650FDBD9BAF1660F33
S31500002B5018D1002963680BDD216113B92268D007FB
S31500002B6002D501330B4423614FF00009A165DBE771
S31500002B7013B92268D20701D50233F4E70123F2E73D
S31500002B804FF0670A0A9B994205DB23682161D80743
S31500002B90EAD54B1CE7E70029D4BFC1F102020122A6
S31500002BA01344E0E723685A0507D4236942463146B1
S31500002BB02846B84701302BD167E7BAF1650F40F2D6
S31500002BC0DD8000220023D4E9120102F00FFF002865
S31500002BD033D00123364A31462846B84701303FF400
S31500002BE054AFDDE90938434502DB2368D8070FD522
S31500002BF031462846DDE90423B84701303FF445AFA6
S31500002C004FF0000908F1FF3804F11A0AC84509DC3B
S31500002C1023689B0700F10381E0680B9B9842B8BFCD
S31500002C20184634E70123524631462846B847013054
S31500002C303FF42BAF09F10109E8E7099B002B39DCCA
S31500002C4001231B4A31462846B84701303FF41DAFE1
S31500002C50DDE9093959EA030302D12368D907D7D533
S31500002C6031462846DDE90423B84701303FF40DAF6D
S31500002C704FF0000A04F11A0B099B5B42534501DC35
S31500002C804B4693E701235A4631462846B84701305A
S31500002C903FF4FBAE0AF1010AEEE700BFFFFFEF7F4C
S31500002CA0D8690000D4690000E0690000DC69000012
S31500002CB0E4690000A36DDDF828A05345A8BF53467C
S31500002CC0002B994636DC4FF0000B29EAE97904F12E
S31500002CD01A02A36D0693A3EB09035B4531DC099B3E
S31500002CE09A453ADC2368DA0737D4099BAAEB03092D
S31500002CF0069BAAEB03039945A8BF9946B9F1000FB5
S31500002D0033DC4FF0000829EAE97904F11A0B099B34
S31500002D10AAEB0303A3EB090343457FF779AF01232E
S31500002D205A4631462846B84701303FF4AEAE08F160
S31500002D300108ECE7424631462846B8470130C2D181
S31500002D40A3E60123314628460692B84701303FF4F0
S31500002D509CAE0BF1010B069ABBE7DDE90423314675
S31500002D602846B8470130C0D18FE6069A4B46314611
S31500002D7028464244B8470130C3D186E6DDF828A08C
S31500002D80BAF1010F01DCDB0736D501234246314695
S31500002D902846B84701303FF478AE31462846DDE98B
S31500002DA00423B84701303FF470AE002200230AF135
S31500002DB0FF3AD4E9120102F019FEC0B9534608F1F0
S31500002DC0010231462846B84701300CD15DE60123A1
S31500002DD05A4631462846B84701303FF456AE08F108
S31500002DE00108D045F3DB4B4604F15002DFE64FF015
S31500002DF0000804F11A0BF4E701234246E1E7012338
S31500002E004A4631462846B84701303FF43EAE08F1FF
S31500002E100108E3680B995B1A4345F0DCFCE64FF0CA
S31500002E20000804F11909F4E72DE9F047164698461B
S31500002E308A6807460B690C46DDF820909342B8BFB6
S31500002E401346336091F843200AB101333360236897
S31500002E50990642BF336802333360256815F00605CC
S31500002E6006D104F1190AE36832689B1AAB422BDCDF
S31500002E7094F843302268003B18BF0123920630D4F1
S31500002E8004F1430241463846C847013023D023683F
S31500002E901A3454F80A2C03F00603042B0ABF54F81C
S31500002EA00E5C002533684FF0000608BFED1A54F893
S31500002EB0123C08BF25EAE5759342C4BF9B1AED187C
S31500002EC0B5421AD1002008E0012352464146384651
S31500002ED0C847013003D14FF0FF30BDE8F087013518
S31500002EE0C1E7E1185A1C30200233224481F843001E
S31500002EF094F8451082F84310C2E701232246414662
S31500002F003846C8470130E6D00136D9E72DE9FF47F4
S31500002F100F7E914680460C46782F9A460C9E01F10C
S31500002F20430207D8622F0AD8002F00F0D180582F0D
S31500002F3000F0B88004F1420684F842703AE0A7F146
S31500002F406303152BF6D801A151F823F0A52F000035
S31500002F50B92F0000352F0000352F0000352F000057
S31500002F60352F0000B92F0000352F0000352F000047
S31500002F70352F0000352F0000B7300000E32F00008A
S31500002F8071300000352F0000352F0000D9300000C9
S31500002F90352F0000E32F0000352F0000352F0000ED
S31500002FA07930000033681A1D1B68326004F142064E
S31500002FB084F8423001239CE033682068191D316093
S31500002FC0060601D51D6803E04506FBD5B3F900509A
S31500002FD0002D03DA2D236D4284F8433058480A2326
S31500002FE011E021683368080653F8045B02D44906E9
S31500002FF048BFADB26F2F3360514814BF0A23082370
S31500003000002184F843106668002EA66005DB21685F
S315000030102E4321F0040121604BD01646B5FBF3F197
S3150000302003FB1157C75D06F8017D2F460D46BB42CF
S31500003030F4D9082B0BD12368DF0708D5236961680B
S315000030409942DEBF302306F8013C06F1FF36921B9B
S3150000305022614B4603AA21464046CDF800A0FFF761
S31500003060E3FE01304AD14FF0FF3004B0BDE8F087EF
S31500003070236843F02003236078273248236884F8C6
S3150000308045701F06316851F8045B02D45F0648BFDD
S31500003090ADB23160D90744BF43F0200323601DB1B0
S315000030A01023ADE72648E9E7236823F020032360D1
S315000030B0F6E71646BDE733682568181D6169306076
S315000030C02E061B6801D5196002E06806FBD519803B
S315000030D0002316462361BCE7336800211A1D3260BF
S315000030E01E686268304600F0C8FA08B1801B60604E
S315000030F063682361002384F84330AAE723693246D4
S3150000310049464046D0470130ADD023689B0713D4CB
S31500003110E068039B9842B8BF1846A6E701233246EB
S3150000312049464046D04701309DD00135E3680399B2
S315000031305B1AAB42F2DCEBE7002504F11906F5E772
S31500003140E6690000F7690000002310B504468360B5
S31500003150818119464366C28108228361C0E9003332
S31500003160C0E904335C3000F019FA0D4B2462636247
S315000031700C4BA3620C4BE3620C4B23630C4B9C423F
S3150000318006D003F16802944202D0D0339C4205D1A6
S3150000319004F15800BDE8104000F06CBA10BD00BF45
S315000031A0ED3300000F340000473400006B3400009C
S315000031B004060020024A0349034800F069B800BF2C
S315000031C0040000209D5200001400002041680C4BB2
S315000031D0994210B5044601D002F060F8A168094B87
S315000031E0994202D0204602F059F8E168064B99420E
S315000031F004D02046BDE8104002F050B810BD00BF14
S31500003200040600206C060020D406002010B50B4BE7
S3150000321004210B4C0B4A20461A600022FFF794FF4C
S3150000322004F1680001220921FFF78EFF04F1D000A6
S3150000323002221221BDE81040FFF786BF3C0700209E
S3150000324004060020B5310000014800F014BA00BFA2
S3150000325045070020014800F00FBA00BF45070020CF
S3150000326010B50446FFF7F0FF236A1BB1BDE8104016
S31500003270FFF7F0BF044B2362044B1B68002BF5D10C
S31500003280FFF7C4FFF2E700BFCD3100003C07002086
S315000032902DE9F8430746884614460026D4E90195E9
S315000032A0B9F1010905D52468002CF7D13046BDE8EF
S315000032B0F883AB89012B07D9B5F90E30013303D05A
S315000032C029463846C04706436835E9E70FB407B5CF
S315000032D0064904AB086853F8042B8168019301F092
S315000032E041FE03B05DF804EB04B070471000002007
S315000032F0036A70B505460E4684680BB9FFF7B0FF42
S31500003300636EDB0705D4A389980502D4A06D00F08F
S31500003310B2F9A389190702D52369002B35D12146B5
S31500003320284600F0E5F880B34FF0FF35636EDA0704
S3150000333005D4A3899B0502D4A06D00F09DF928460B
S3150000334070BD002B04DAA2699A4217DC0A2915D04F
S3150000335023685A1C22601970A36816F8011F013BE6
S31500003360A3600029EDD1002B11DA22460A21284656
S3150000337000F07FF80130D7D00A25D7E72246284645
S3150000338000F077F80130E7D1CEE7013EE4E72368A5
S315000033905A1C22600A221A70EEE7FFFF024B014612
S315000033A01868FFF7A5BF00BF100000200EB400B5D7
S315000033B09CB06FF000411DAB0290069007910491FE
S315000033C00848094953F8042B059102A9006801939E
S315000033D001F0A2FC029B00221A701CB05DF804EBFF
S315000033E003B07047100000200802FFFF10B50C461E
S315000033F0B1F90E1000F014F90028ABBF636DA38974
S315000034001B1823F48053ACBF6365A38110BD2DE95F
S31500003410F0411F468B8905460C46DB05164605D549
S3150000342002230022B1F90E1000F0E8F8A389324613
S31500003430B4F90E10284623F48053A3813B46BDE819
S31500003440F04100F0FFB810B50C46B1F90E1000F0CF
S31500003450D5F8431CA38915BF606523F4805343F454
S315000034608053A38118BFA38110BDB1F90E1000F0DF
S31500003470B5B8F8B50E461446054618B1036A0BB939
S31500003480FFF7EEFEA369A360A3891A0701D5236996
S3150000349043B92146284600F02BF818B14FF0FF3704
S315000034A03846F8BD2368F6B222693746981A63692A
S315000034B0834205DC2146284601F0F0FE0028EDD1C6
S315000034C0A368013BA36023685A1C22601E70431C3C
S315000034D062699A4204D0A389DB07E1D50A2EDFD1BF
S315000034E02146284601F0DAFE0028D9D0D6E7FFFFAC
S315000034F038B5294B05460C46186818B1036A0BB94E
S31500003500FFF7AEFEB4F90C30190722D4DA0607D459
S3150000351009222A6043F040034FF0FF30A38133E0D5
S31500003520580712D5616B41B104F14403994202D0A8
S31500003530284600F013FF00236363A38923F02403C6
S31500003540A3810023636023692360A38943F00803F2
S31500003550A38123694BB9A38903F42073B3F5007FD4
S3150000356003D02146284601F0E6FEB4F90C3013F0EC
S3150000357001020AD00022A26062695242A261226957
S3150000358042B913F08000C5D138BD990758BF6269AA
S31500003590A260F4E70020F7E710000020024403468B
S315000035A0934200D1704703F8011BF9E7013903463E
S315000035B010B532B111F8014F013A03F8014B002C56
S315000035C0F7D11A440021934200D110BD03F8011B24
S315000035D0F9E7FFFF004870475001002038B5002387
S315000035E0054D044608462B60FDF7F3FC431C02D14B
S315000035F02B6803B1236038BD4007002038B5044668
S31500003600064D0846114600222A601A46FDF708FDB7
S31500003610431C02D12B6803B1236038BD400700204C
S3150000362038B50446064D0846114600222A601A4659
S31500003630FDF7B2FC431C02D12B6803B1236038BDF1
S315000036404007002038B50446064D084611460022BC
S315000036502A601A46FDF7CEFB431C02D12B6803B144
S31500003660236038BD40070020014B1868704700BF33
S3150000367010000020704770477047C9B203460244E5
S3150000368010B59342184601D1002003E004780133B7
S315000036908C42F6D110BD0A44431E914200D17047B8
S315000036A010B511F8014B914203F8014FF9D110BD45
S315000036B0034613F8012B002AFBD1181A013870476C
S315000036C02DE9F74F036907460C69A342C0F28380D0
S315000036D0013C00F1140501F11408A30055F824205B
S315000036E008EB8409009305EB8403019358F8243012
S315000036F001339A42B2FBF3F631D34FF0000AC446C7
S31500003700AE46D3465CF8043B98B2E1454FEA134314
S3150000371006FB00A04FEA104280B206FB0323DEF848
S31500003720002092B24FEA134AA2EB00029BB2DEF8E7
S3150000373000005A44C3EB224392B203EB104342EA21
S3150000374003424FEA234B4EF8042BDBD2009BEB5887
S315000037502BB9019B043B9D421A4630D33C61384647
S3150000376001F072F9002826DB2946002058F8042BC0
S31500003770D1F800C01FFA82FEC1451FFA8CF34FEA4A
S315000037801242A3EB0E030344C2EB23429BB202EBAD
S315000037901C4243EA02434FEA224041F8043BE5D289
S315000037A055F8242005EB840322B9043B9D421A46B2
S315000037B00BD33C610136304603B0BDE8F08F12688A
S315000037C0043B002ACAD1013CC5E71268043B002A23
S315000037D0EFD1013CEAE70020EEE7FFFFFFFFFFFF26
S315000037E02DE9F04FC76999B08346229E09910E9242
S315000037F0139355EC104B8DED040B7FB9102000F0A0
S31500003800F7FD0246CBF81C0020B9A74BEF21A748CD
S31500003810FEF784FBC0E901770760C760DBF81C3060
S31500003820196859B15A680123584693404A608B601B
S3150000383000F0D4FEDBF81C3000221A602B1EB7BF46
S3150000384023F00043002301220593A8BF3360059FA0
S31500003850974BB8BF3260BB4312D142F20F73139A33
S315000038601360C7F31303234300F04685239BDFF859
S3150000387054A2002B00F048850AF1030300F042BD74
S315000038809DED047B0022002351EC170B8DED0C7B84
S3150000389002F0ACF8804658B10123139A1360239BBB
S315000038A013B1844B239A1360DFF81CA200F02CBDE1
S315000038B0C7F30A5616AA17A958469DED0C0B01F038
S315000038C077F98146002E75D00D9BA6F2FF36CDF80E
S315000038D05080C3F3130343F07F53DDE90C0143F437
S315000038E0401319460022744BFEF71EFE68A3D3E967
S315000038F0002301F013FE68A3D3E90023FEF716FEAA
S3150000390004460D463046FEF75DFF65A3D3E9002366
S3150000391001F004FE02460B4620462946FEF706FE47
S3150000392004460D4602F0AAF8002207460023204668
S31500003930294602F065F840B13846FEF743FF2246B5
S315000039402B4602F053F800B9013F162F51D85B4BB6
S3150000395003EBC703DDE90C01D3E9002302F050F8BD
S31500003960002848D0013F00231293169B9B1B5A1E2A
S3150000397046BFC3F1010800234FF00008089248BF74
S315000039800893002F39DB089B0F973B4408930023CD
S315000039900A93099B092B61D8052BC5BF043B00245C
S315000039A001240993099B023B032B63D8DFE803F04C
S315000039B05254372CDDE916631E4406F23243202B9F
S315000039C0C9BFC3F14003C3F120039F4006F212436F
S315000039D0D8BF04FA03F006F1FF36C4BF24FA03F396
S315000039E047EA0300FEF7DEFE0122A1F1F873149206
S315000039F077E70123B8E71290B7E77B42A8EB070801
S31500003A000A9300230F93C4E701230B930E9BFB1825
S31500003A1000930133012B0393B8BF012306E0012372
S31500003A200B930E9B002B28DD00930393DBF81C0001
S31500003A300021042202F114059D4223D94160584613
S31500003A4000F08CFD8246002840D11D4B024640F214
S31500003A50AF11DCE60023E3E70023D6E701240023C9
S31500003A600B9409934FF0FF33002200930393122324
S31500003A700E92DBE701230B93F4E701231A4600932A
S31500003A800393F5E701315200D4E700BFAFF300809E
S31500003A9061436F63A787D23FB3C8608B288AC63F4E
S31500003AA0FB799F501344D33F156A00002C6A00002F
S31500003AB00000F07FE56900000000F83F406B000061
S31500003AC0856A0000116A0000E4690000DBF81C301A
S31500003AD01860039B0E2B00F2A180002C00F09E8044
S31500003AE0002F33DD07F00F029B4BF8054FEA271432
S31500003AF003EBC20393ED007B8DED067B16D5974B4A
S31500003B0004F00F040326D3E90823DDE90C0101F0D4
S31500003B102FFECDE90401914D54B9DDE90623DDE917
S31500003B20040101F025FECDE9040128E00226F2E7B2
S31500003B30E10708D50136DDE90601D5E9002301F0E4
S31500003B40EDFCCDE9060164100835E5E700F0AF802D
S31500003B507C42814B814D022604F00F02241103EBB7
S31500003B60C203DDE90C01D3E9002301F0D7FC0023F1
S31500003B70CDE90401002C40F08F80002BD3D1129B9D
S31500003B80DDE90445002B00F094800022744B2046AA
S31500003B90294601F035FF002800F08B80039B002B9F
S31500003BA000F08780009B002B34DD7B1E2046002220
S31500003BB02946069301366B4B01F0B0FC009CCDE91B
S31500003BC004013046FEF7FEFDDDE9042301F0A6FC04
S31500003BD00022654BFEF7AAFC0546A1F15076002CA3
S31500003BE06AD10022614BDDE90401FEF79DFC024625
S31500003BF00B46CDE904232A46334601F01FFF002871
S31500003C0040F087822A4606F10043DDE9040101F00F
S31500003C10F7FE38BBDDE90C34CDE90434179B002BE5
S31500003C20C0F258810E2F00F355814B4B03EBC703AF
S31500003C3093ED007B0E9B002B8DED007B80F2E580E3
S31500003C40039B002B00F3E1800CD10022474B51EC83
S31500003C50170B01F063FCDDE9042301F0E5FE002803
S31500003C6000F05582002425460E9B5646DB430693FC
S31500003C7000272146584600F0B1FC002D00F0BD801B
S31500003C802FB1AF4203D03946584600F0A7FC29466B
S31500003C90584600F0A3FCB0E0E20705D50136D5E9A9
S31500003CA0002301F03BFC01236410083562E702267D
S31500003CB065E7039C069784E7274B0B9903EBC40340
S31500003CC0544453E90223002954D00020284901F026
S31500003CD04FFD334656462A46FEF726FCCDE910012F
S31500003CE0DDE9040101F0CAFE0546FEF76BFD02465A
S31500003CF00B463035DDE90401FEF716FC02460B469D
S31500003D0006F8015BCDE90423DDE9102301F078FE16
S31500003D10002872D100201249DDE90423FEF704FCD5
S31500003D20DDE9102301F06CFE002840F0B480A642C5
S31500003D303FF470AF00220B4BDDE9100101F0EEFB02
S31500003D400022084BCDE91001DDE9040101F0E6FB94
S31500003D50CDE90401C4E700BF406B0000186B00000A
S31500003D600000F03F0000244000001C40000014400A
S31500003D700000E03F31465646284601F0CFFB159439
S31500003D80CDE91001DDE9040101F078FE0546FEF7F4
S31500003D9019FD024630350B46DDE90401FEF7C4FB8A
S31500003DA006F8015B02460B46A642CDE904234FF016
S31500003DB0000224D1AB4BDDE91001FEF7B7FB02464A
S31500003DC00B46DDE9040101F039FE002863D100202D
S31500003DD0A449DDE91023FEF7A7FB02460B46DDE901
S31500003DE0040101F00DFE00283FF414AF159E731E6A
S31500003DF0159316F8013C302BF8D0069F3BE09A4B02
S31500003E0001F08CFBCDE90401BCE7DDE9044556462B
S31500003E1020462946DDE9002301F0AAFC01F02EFE2A
S31500003E208046FEF7CFFCDDE9002301F077FB024672
S31500003E30204608F130040B462946FEF775FB039D24
S31500003E4006F8014BA6EB0A0402460B46A54234D1FE
S31500003E50FEF76CFB04460D46DDE9002301F0EEFD9E
S31500003E60C0B920462946DDE9002301F0BFFD10B1A7
S31500003E7018F0010F0ED14946584600F0AFFB00235B
S31500003E8001373370139B1F60239B002B00F03C828D
S31500003E901E6039E2069733461E4613F8012D392A6D
S31500003EA007D19A45F8D1069A0132069230228AF84D
S31500003EB000201A7801321A709FE700226A4B01F03F
S31500003EC02DFB0022002304460D4601F08FFD00283D
S31500003ED09ED0D0E70B9A002A00F0E180099A012AC9
S31500003EE000F3C480149A002A00F0B78003F233432B
S31500003EF00A9C4646089A0121584698441A44089254
S31500003F0000F022FC05465EB1089B002B08DDB3429B
S31500003F10089AA8BF3346A8EB0308F61AD31A0893E3
S31500003F200A9BF3B10B9B002B00F0BD808CB1294698
S31500003F302246584600F0C2FC4A4601460546584607
S31500003F4000F018FC49460690584600F047FB069BD1
S31500003F5099460A9B1A1B04D04946584600F0AEFC07
S31500003F6081460121584600F0EFFB0F9B0446002BCB
S31500003F7000F0CE811A460146584600F09FFC099B88
S31500003F800446012B00F39580049B002B40F08D80A6
S31500003F90059BC3F31303002B40F08980059B23F098
S31500003FA000431B0D1B052BB1089B08F101080133CB
S31500003FB0089301230A930F9B002B00F0AF8123691E
S31500003FC004EB8303186900F073FBC0F12000089B23
S31500003FD0184410F01F0077D0C0F12003042B6BDDCE
S31500003FE0C0F11C00089B8044034406440893B8F1C2
S31500003FF0000F05DD49464246584600F0B9FC8146A9
S31500004000089B002B05DD21461A46584600F0B0FCF9
S315000040100446129B002B59D02146484600F014FD59
S31500004020002853DA7B1E49460A2258460693002387
S3150000403000F0F6FA0B9B8146002B00F071810023FD
S3150000404029460A22584600F0EBFA009B0546002B4B
S3150000405067DC099B022B41DC63E0169BC3F1360348
S3150000406046E700BF0000E03F00002440039B5C1EC3
S315000040700A9BA34209DB1C1B039B002BBFF639AF2F
S31500004080039BA8EB0306002334E70A9B46460F9AD8
S31500004090E31A0A9400241A44039B0F922AE70A9C07
S315000040A046460B9D2FE70A9A56E7002382E7049BB4
S315000040B080E700230A9382E799D01C33089A1A44B2
S315000040C098441E44089292E70346F6E7039B069738
S315000040D0002B20DC0093099B022B1EDD009B002B8E
S315000040E07FF4C2AD21460522584600F099FA0146F2
S315000040F00446484600F0A8FC00287FF7B5AD3123FA
S31500004100564606F8013B069B01330693B0E5039C31
S3150000411006972546F3E7039B00930B9B002B00F0C5
S315000041200381002E05DD29463246584600F020FC64
S3150000413005460A9B002B5AD06968584600F00EFACD
S31500004140064628B9834B024640F2EF21FFF75FBBD4
S315000041502A6905F10C010C3002329200FFF79BFA36
S3150000416001223146584600F003FC0AF101032F46AE
S3150000417005460393009B53440B93049B03F00103F2
S315000041800A93039B21464846013B0093FFF798FAA2
S315000041903946049000F13008484600F055FC2A469E
S315000041A008902146584600F06BFCC268064602BBE2
S315000041B00146484600F048FC0246314658460E92F3
S315000041C000F00CFA099B0E9A039E42EA03010A9B31
S315000041D0194310D1B8F1390F29D0089B002B02DD05
S315000041E0049B03F13108009B83F8008041E52846D3
S315000041F0BBE70122E1E7089B002B04DB09990B438F
S315000042000A990B4320D1002AEDDD49460122584682
S3150000421000F0AEFB2146814600F016FC002803DCC8
S31500004220E1D118F0010FDED0B8F1390FD8D139231A
S31500004230009A137033461E46013B16F8012C392AA4
S3150000424051D001321A7014E5002A07DDB8F1390F92
S31500004250EDD008F10103009A13700AE5039B0B9A4F
S3150000426003F8018C934228D0494600230A22584677
S3150000427000F0D6F9AF4281464FF000034FF00A0234
S315000042803946584607D100F0CBF907460546039B49
S315000042900133039375E700F0C3F929460746002367
S315000042A00A22584600F0BCF90546F0E7009B0027B5
S315000042B0002BCCBF1E4601265644494601225846CD
S315000042C000F056FB2146814600F0BEFB0028B1DC1B
S315000042D002D118F0010FADD133461E4613F8012D59
S315000042E0302AFAD0C5E49A45A5D1069B0133069338
S315000042F031238AF80030BCE4239BDFF85CA01BB1B5
S315000043000AF10803239A1360504619B0BDE8F08FEE
S31500004310099B012B7FF738AE0F9B0A93012056E6C7
S31500004320009B002B7FF7D7AE564621464846FFF73F
S31500004330C7F900F13008009B06F8018BA6EB0A02CC
S315000043409342B3DD494600230A22584600F068F935
S315000043508146EAE7856A0000086A000038B5054626
S31500004360002941D051F8043C0C1F002BB8BFE418BB
S3150000437000F0E8F81D4A136833B9636014602846F4
S31500004380BDE8384000F0E4B8A34208D920682118F7
S315000043908B4201BF19685B6809182160EDE71A4670
S315000043A05B680BB1A342FAD911685018A0420BD131
S315000043B020680144501811608342E0D118685B6898
S315000043C0084453601060DAE702D90C232B60D6E765
S315000043D0206821188B4202BF19685B680918636060
S315000043E008BF21605460CAE738BD00BF4C070020F3
S315000043F0024B0146186800F025B800BF10000020E7
S3150000440070B50F4E0C460546316811B901F00CF82F
S3150000441030602146284601F007F8431C03D14FF0CF
S31500004420FF34204670BDC41C24F00304A042F8D01B
S31500004430211A284600F0F8FF0130F2D1EFE700BF5D
S31500004440480700202DE9F843CD1C064625F0030554
S3150000445008350C2D38BF0C25002D01DBA94204D9E7
S315000044600C2333600020BDE8F883DFF8D48000F029
S3150000447069F8D8F800301C4644BB29463046FFF799
S31500004480BFFF431C044658D1D8F800402746002FEA
S3150000449043D1002C4BD023683946304604EB030940
S315000044A000F0C2FF814542D1216830466D1A294687
S315000044B0FFF7A6FF01303AD023682B442360D8F8D3
S315000044C000305A6862BBC8F800700FE02268521BC1
S315000044D020D40B2A17D96119A342256018BF596049
S315000044E0636808BFC8F8001062514B60304600F0A0
S315000044F02FF804F10B00231D20F00700C21A1CBF81
S315000045001B1AA350AFE76268A3420CBFC8F800208D
S315000045105A60EBE723466468AEE73C467F68B6E739
S315000045201A465B68A342FBD100235360DEE70C23E7
S315000045303046336000F00CF894E70560D6E700BF1C
S315000045404C0700200148FFF796B800BF440700203B
S315000045500148FFF791B800BF4407002070B5C6694F
S3150000456004460D4676B91020FFF742FF0246E06189
S3150000457020B9184B6B211848FDF7D0FCC0E901663D
S315000045800660C660E669F36883B1E369DB6853F8E1
S315000045902500B8B90121204601FA05F6721D9200E0
S315000045A000F052FF60B1C0E901560EE0212204215D
S315000045B0204600F049FFE369F060DB68002BE4D198
S315000045C0002070BD026843F825200023C0E90333AC
S315000045D0F7E700BF156A0000966A000070B5C66965
S315000045E005460C4676B91020FFF702FF0246E86141
S315000045F020B9094B8F210948FDF790FCC0E90166F7
S315000046000660C6603CB1EB696268DB6853F822104D
S31500004610216043F8224070BD156A0000966A0000CA
S315000046202DE9F04101F1140C07460C461E460D69B2
S315000046300020DCF80030013099B2854202FB0161AE
S315000046404FEA13464FEA114389B202FB063301EBE8
S3150000465003414FEA13464CF8041BEADC0EB3A36889
S31500004660AB4219DC616838460131FFF777FF8046B7
S3150000467028B902460C4BBA210C48FDF74FFC2269BB
S3150000468004F10C010C3002329200FFF704F82146C7
S3150000469044463846FFF7A2FF04EB850301355E6109
S315000046A025612046BDE8F081856A0000966A000013
S315000046B0B0F5803F034636BF030400201020B3F157
S315000046C0807F3CBF1B020830B3F1805F3CBF1B01FB
S315000046D00430B3F1804F3CBF9B000230002B05DB5A
S315000046E013F0804F00F1010008BF202070470368D7
S315000046F0024613F007000BD0D90721D4980747BF0D
S315000047005B0801209B0802204CBF136013607047B2
S3150000471099B209B91B0C1020D9B209B908301B0A85
S31500004720190704BF1B090430990704BF9B08023010
S31500004730D90703D45B0800F1010003D0136070476A
S31500004740002070472020704710B50C460121FFF766
S3150000475005FF024628B9054B40F245110448FDF70E
S31500004760DDFB01234461036110BD00BF856A0000C3
S31500004770966A00002DE9F04F17460A69894685B00A
S315000047803B699A42A2BF3B460F4699463D69BB68C4
S31500004790D9F810A0796805EB0A06B342B8BF013113
S315000047A0FFF7DCFE30B90246424B4FF4B171424886
S315000047B0FDF7B4FB00F11404002204EB860E234639
S315000047C0734520D307F1140809F1140108EB850598
S315000047D001EB8A030293EB1B1537153B23F003030A
S315000047E00433BD4238BF04230193029B03918B42DD
S315000047F00CD8002E03DD5EF8043D002B57D0066171
S3150000480005B0BDE8F08F43F8042BD9E7B1F800A056
S31500004810BAF1000F21D0C446A14600275CF8042B4C
S31500004820D9F800301FFA82FB65459BB24FEA124267
S315000048300AFB0B333B44D9F800704FEA17470AFBD3
S31500004840027202EB13429BB24FEA124743EA02435B
S3150000485049F8043BE2D8019BE750039B0431B3F8C7
S315000048600290B9F1000F20D023684746A4464FF0C6
S31500004870000AB7F800B09BB2BCF8022009FB0B2275
S31500004880524443EA02434CF8043B57F8043B4FEAD0
S31500004890134ABCF80030BD4209FB0A3303EB12434E
S315000048A04FEA134AE5D8019AA35004349DE7013E26
S315000048B09FE700BF856A0000966A00002DE9F8436D
S315000048C0154612F0030207460E4607D0013A254C5C
S315000048D0002354F82220FFF7A3FE0646AD103DD074
S315000048E0FC697CB91020FFF783FD0246F86128B900
S315000048F01D4B40F2B3111D48FDF710FBC0E9014402
S315000049000460C460D7F81C80D8F808404CB940F25F
S3150000491071213846FFF718FF00230446C8F808003F
S3150000492003604FF00009EB070AD5314622463846A8
S31500004930FFF720FF8046314638464646FFF74EFED3
S315000049406D100BD0206838B9224621463846FFF74D
S3150000495011FF2060C0F800900446E4E73046BDE849
S31500004960F88300BF0C6B0000156A0000966A000011
S315000049702DE9F0470C46074691464FEA621A23692D
S31500004980496803EB6218A36808F10106B3420BDB22
S315000049903846FFF7E3FD054648B90246284B4FF473
S315000049A0EF712848FDF7BAFA01315B00EEE7002304
S315000049B000F1140100F110021846534533DB2AEAD0
S315000049C0EA7A04F11403206919F01F0901EB8A0140
S315000049D003EB800C2BD0C9F1200E8A460022186802
S315000049E000FA09F010434AF8040B53F8042B9C45CF
S315000049F022FA0EF2F3D8ACEB040304F11500153BD2
S31500004A0023F003030433604588BF0423CA500AB168
S31500004A1008F10206013E384621462E61FFF7DEFD0B
S31500004A202846BDE8F087013342F8040FC5E704398C
S31500004A3053F8042B9C4541F8042FF9D8EAE700BF48
S31500004A40856A0000966A000003460A690069801AB2
S31500004A5030B50ED11433143103EB820401EB82011D
S31500004A6054F8045D51F8042D954203D005D24FF059
S31500004A70FF3030BDA342F3D3FBE70120F9E7FFFF88
S31500004A802DE9F74F89460646114614464846FFF774
S31500004A90DBFF051E12D129463046FFF75FFD0246B1
S31500004AA028B9414B40F237214048FDF737FA012338
S31500004AB0C0E90435104603B0BDE8F08FBCBF4B46D5
S31500004AC0A1463046B8BF0125D9F80410B4BF1C462C
S31500004AD00025FFF743FD024618B9334B40F2452146
S31500004AE0E2E7D9F8107004F1140E266900F1140BF0
S31500004AF0C56009F1140509F110030EEB860605EBF6
S31500004B008708D9464FF0000C0193019B5EF8040B11
S31500004B1053F804AF764501931FFA8AF3194683B218
S31500004B204FEA1040A1EB0303C0EB1A40634400EBCD
S31500004B3023409BB24FEA204C43EA004349F8043B2A
S31500004B40E3D8331B1534153B23F003030433A64285
S31500004B5038BF04231D445B442C461E4644450ED3F1
S31500004B6008F10301491B033D21F00301A84538BFA5
S31500004B7000210B4453F8041D99B117619AE754F8C4
S31500004B80041BE6461FFA81FC080C7144F44489B202
S31500004B9000EB2C4041EA00414FEA204C46F8041B4A
S31500004BA0DCE7013FE6E700BF856A0000966A000081
S31500004BB02DE9F7430F460121164659EC108BFFF7F6
S31500004BC0CDFC044630B90246234B40F20F31234850
S31500004BD0FDF7A4F9C9F30A55C9F313030DB143F45C
S31500004BE080130193B8F1000323D068460093FFF7C2
S31500004BF07EFDDDE90012D0B1C0F1200302FA03F315
S31500004C00C2400B4301926361019B002BA3610CBF61
S31500004C10012202222261A5B1A5F233450544C0F165
S31500004C2035003D603060204603B0BDE8F083616129
S31500004C30EAE701A8FFF75BFD019B203001226361D3
S31500004C40E8E7A0F2324004EB820338601869FFF708
S31500004C502FFDC0EB4210E5E7856A0000966A00006A
S31500004C602DE9F0471F468E6882460C46BE429046A6
S31500004C700B682DD8B1F90C2012F4906F26D0656917
S31500004C80096905EB4505A3EB01097B1C05EBD57509
S31500004C904B446D109D4238BF1D46530527D5294606
S31500004CA0FFF7D0FB064660B34A462169FEF7F3FCE0
S31500004CB0A38923F4906343F08003A38126614E44C5
S31500004CC06561A5EB090526603E46A560BE4200D992
S31500004CD03E4632464146206800F069FBA368002044
S31500004CE09B1BA360236833442360BDE8F0872A46F4
S31500004CF000F0D0FB06460028E0D121695046FFF7B8
S31500004D002DFB0C234FF0FF30CAF80030A38943F087
S31500004D104003A381E9E7FFFF2DE9F04F98468B8911
S31500004D209DB007461B060D46144610D50B6973B990
S31500004D304021FFF787FB2860286130B90C233B60D0
S31500004D404FF0FF301DB0BDE8F08F40236B610023AC
S31500004D50CDF80C804FF00109DFF8A08109932023DC
S31500004D608DF8293030238DF82A3023469A4613F8D9
S31500004D70012B0AB1252AF9D1BAEB040B0BD05B46FD
S31500004D80224629463846FFF76BFF013000F0A78020
S31500004D90099A5A4409929AF80030002B00F09F8035
S31500004DA000234FF0FF320AF1010A049307938DF8AE
S31500004DB053301A93CDE90523544605224F4814F87B
S31500004DC0011BFEF75AFC049AD8B9D00644BF20232B
S31500004DD08DF85330110744BF2B238DF853309AF8C2
S31500004DE000302A2B15D0079A544600204FF00A0CA3
S31500004DF0214611F8013B303B092B4BD9B0B1079244
S31500004E0014E0A0EB0803A24609FA03F31343049344
S31500004E10D2E7039B191D1B68002B0391BBBF5B42A6
S31500004E2042F0020207930793B8BF049223782E2B11
S31500004E300AD163782A2B32D1039B02341A1D1B68D0
S31500004E4043EAE37303920593DFF8C0A003222178B7
S31500004E505046FEF712FC38B1A0EB0A004022049B34
S31500004E60013482401343049314F8011B062224489C
S31500004E708DF82810FEF701FC002836D0214B1BBB0D
S31500004E80039B073323F0070308330393099B33443B
S31500004E9009936AE70CFB02320C460120A8E70023BF
S31500004EA001344FF00A0C19460593204610F8012BE1
S31500004EB0303A092A03D9002BC6D00591C4E70CFB6A
S31500004EC0012104460123F0E703AB2A4604A938462C
S31500004ED000930D4BFDF77EFD421C0646D6D1AB89ED
S31500004EE05B063FF52DAF09982CE703AB2A4604A9CC
S31500004EF038460093044BFEF709F8EDE7F06A000028
S31500004F00FA6A0000D5290000614C0000F66A00002C
S31500004F109368013B002B936010B408DA9469A342AE
S31500004F2001DB0A2903D15DF8044BFEF7A2BA136828
S31500004F30581C1060084619705DF8044B7047F8B5A8
S31500004F4006460F461446D518AC4201D1002007E0AC
S31500004F503A4614F8011B3046FFF7DAFF431CF3D13B
S31500004F60F8BDFFFF2DE9F04F0D469DB0144698465B
S31500004F70064618B1036A0BB9FEF772F96B6ED907CC
S31500004F8005D4AB899A0502D4A86DFEF774FBAB89EC
S31500004F901B0701D52B699BB929463046FEF7A8FAAF
S31500004FA070B16B6EDC0704D54FF0FF301DB0BDE865
S31500004FB0F08FAB899805F7D4A86DFEF75DFBF3E794
S31500004FC00023CDF80C804FF00109DFF8B481099376
S31500004FD020238DF8293030238DF82A3023469A462F
S31500004FE013F8012B0AB1252AF9D1BAEB040B0BD021
S31500004FF05B46224629463046FFF7A1FF013000F006
S31500005000A780099A5A4409929AF80030002B00F0BA
S315000050109F8000234FF0FF320AF1010A04930793A1
S315000050208DF853301A93CDE905235446052254488A
S3150000503014F8011BFEF721FB049AD8B9D10644BF28
S3150000504020238DF85330130744BF2B238DF853309C
S315000050509AF800302A2B15D0079A544600204FF0B4
S315000050600A0C214611F8013B303B092B4BD9B0B154
S31500005070079214E0A0EB0803A24609FA03F31343D0
S315000050800493D2E7039B191D1B68002B0391BBBF3A
S315000050905B4242F0020207930793B8BF049223785B
S315000050A02E2B0AD163782A2B32D1039B02341A1D88
S315000050B01B6843EAE37303920593DFF8D4A0032247
S315000050C021785046FEF7D9FA38B1A0EB0A00402203
S315000050D0049B013482401343049314F8011B0622F7
S315000050E028488DF82810FEF7C8FA00283FD0264B2E
S315000050F01BBB039B073323F0070308330393099B6A
S315000051003B4409936AE70CFB02320C460120A8E7F0
S31500005110002301344FF00A0C19460593204610F877
S31500005120012B303A092A03D9002BC6D00591C4E7D2
S315000051300CFB012104460123F0E703AB2A4604A930
S3150000514030460093114BFDF745FC0746781CD6D137
S315000051506B6ED90705D4AB899A0502D4A86DFEF704
S315000051608BFAAB895B063FF51FAF09981EE703ABC9
S315000051702A4604A930460093044BFDF7C7FEE4E730
S31500005180F06A0000FA6A0000D52900003F4F0000CF
S31500005190F66A0000B1F90C202DE9F0411607054624
S315000051A00C4654D44B68002B02DC0B6C002B48DDFC
S315000051B0E66A002E45D0002312F480522F68216A39
S315000051C02B6030D0626DA389590705D56368D21A62
S315000051D0636B0BB1236CD21A0023E66A216A284658
S315000051E0B047431CA38906D129681D292BD82A4A12
S315000051F0CA40D60727D50022D904626022692260F8
S3150000520004D5421C01D12B6803B96065616B2F6020
S31500005210B9B104F14403994202D02846FFF79EF83B
S31500005220002363630DE001232846B0470246501C65
S31500005230C9D12B68002BC6D01D2B01D0162B1DD132
S315000052402F60002021E043F040031BB21AE00F69F3
S31500005250002FF6D093070E680F600CBF4B69002332
S31500005260A6EB07088B60B8F1000FEADD43463A4625
S31500005270216A2846A66AB047002808DCB4F90C3033
S3150000528043F040034FF0FF30A381BDE8F0810744AF
S31500005290A8EB0008E7E700BF0100402038B50B691E
S315000052A005460C4613B90025284638BD18B1036AD1
S315000052B00BB9FDF7D5FFB4F90C30002BF3D0626EB5
S315000052C0D00704D4990502D4A06DFEF7D4F9284678
S315000052D02146FFF75FFF636E0546DA07E4D4A3892C
S315000052E09B05E1D4A06DFEF7C7F9DDE770B50C4666
S315000052F0B1F90E1096B0154600291E460CDAA389A0
S31500005300002113F0800F14BF40234FF48063002068
S3150000531031602B6016B070BD6A4600F063F8002855
S31500005320EDDB019901F47041A1F500535942594151
S315000053304FF48063EBE78B89F7B59D0706460C466D
S3150000534007D504F14703236023610123636103B09A
S31500005350F0BD01AB6A46FFF7C9FF009F0546304620
S315000053603946FFF76FF848B9B4F90C309A05EED410
S3150000537023F0030343F00203A381E2E7A38920603D
S3150000538043F08003A381019BC4E904075BB1B4F930
S315000053900E10304600F038F828B1A38923F0030335
S315000053A043F00103A381A3891D43A581CFE788426A
S315000053B010B501EB020402D98442234607D8431EE6
S315000053C0A14208D011F8012B03F8012FF8E7024497
S315000053D001468A4200D110BD13F8014D02F8014D75
S315000053E0F7E7FFFF38B50023064D04460846114689
S315000053F02B60FBF7FAFD431C02D12B6803B1236037
S3150000540038BD00BF4007002038B50023054D0446CF
S3150000541008462B60FBF7F9FD431C02D12B6803B14C
S31500005420236038BD4007002038B50023054D0446EB
S3150000543008462B60FCF796FF431C02D12B6803B18C
S31500005440236038BD4007002070B5A1FB025434B973
S315000054502946FEF7F7FF064628B9304670BD0C22EE
S3150000546000260260F9E72A462146FEF797F8F4E798
S3150000547082B001B901A942B14BB113780B60127821
S31500005480101E18BF012002B070471046FBE76FF0F0
S315000054900100F8E72DE9F041074614460D4621B90B
S315000054A01146BDE8F041FEF7CDBF2AB92546FEF705
S315000054B055FF2846BDE8F08100F027F884420646ED
S315000054C002D8B4EB500FF4D821463846FEF7BAFF9F
S315000054D0804608B94546ECE7B4422246294628BF2D
S315000054E03246FEF7D8F829463846FEF737FFF1E789
S315000054F00346084641B1FF2A04D98A224FF0FF30FD
